{
  "contractName": "Voting",
  "abi": [
    {
      "constant": true,
      "inputs": [
        {
          "name": "",
          "type": "address"
        },
        {
          "name": "",
          "type": "bytes32"
        }
      ],
      "name": "hasVoted",
      "outputs": [
        {
          "name": "",
          "type": "bool"
        }
      ],
      "payable": false,
      "stateMutability": "view",
      "type": "function"
    },
    {
      "inputs": [],
      "payable": false,
      "stateMutability": "nonpayable",
      "type": "constructor"
    },
    {
      "anonymous": false,
      "inputs": [
        {
          "indexed": false,
          "name": "candidateID",
          "type": "uint256"
        }
      ],
      "name": "AddedCandidate",
      "type": "event"
    },
    {
      "constant": false,
      "inputs": [
        {
          "name": "name",
          "type": "bytes32"
        },
        {
          "name": "party",
          "type": "bytes32"
        }
      ],
      "name": "addCandidate",
      "outputs": [],
      "payable": false,
      "stateMutability": "nonpayable",
      "type": "function"
    },
    {
      "constant": false,
      "inputs": [
        {
          "name": "uid",
          "type": "bytes32"
        },
        {
          "name": "candidateID",
          "type": "uint256"
        }
      ],
      "name": "vote",
      "outputs": [],
      "payable": false,
      "stateMutability": "nonpayable",
      "type": "function"
    },
    {
      "constant": true,
      "inputs": [
        {
          "name": "candidateID",
          "type": "uint256"
        }
      ],
      "name": "totalVotes",
      "outputs": [
        {
          "name": "",
          "type": "uint256"
        }
      ],
      "payable": false,
      "stateMutability": "view",
      "type": "function"
    },
    {
      "constant": true,
      "inputs": [],
      "name": "getNumOfCandidates",
      "outputs": [
        {
          "name": "",
          "type": "uint256"
        }
      ],
      "payable": false,
      "stateMutability": "view",
      "type": "function"
    },
    {
      "constant": true,
      "inputs": [],
      "name": "getNumOfVoters",
      "outputs": [
        {
          "name": "",
          "type": "uint256"
        }
      ],
      "payable": false,
      "stateMutability": "view",
      "type": "function"
    },
    {
      "constant": true,
      "inputs": [
        {
          "name": "candidateID",
          "type": "uint256"
        }
      ],
      "name": "getCandidate",
      "outputs": [
        {
          "name": "",
          "type": "uint256"
        },
        {
          "name": "",
          "type": "bytes32"
        },
        {
          "name": "",
          "type": "bytes32"
        }
      ],
      "payable": false,
      "stateMutability": "view",
      "type": "function"
    }
  ],
  "bytecode": "0x608060405234801561001057600080fd5b50336000806101000a81548173ffffffffffffffffffffffffffffffffffffffff021916908373ffffffffffffffffffffffffffffffffffffffff16021790555061066e806100606000396000f300608060405260043610610083576000357c0100000000000000000000000000000000000000000000000000000000900463ffffffff16806319e6e1581461008857806335b8e820146100c95780634a1dc5cc1461012857806365fc783c146101915780639ef1204c146101bc578063a1adbb25146101f7578063e8685ba114610236575b600080fd5b34801561009457600080fd5b506100b360048036038101908080359060200190929190505050610261565b6040518082815260200191505060405180910390f35b3480156100d557600080fd5b506100f4600480360381019080803590602001909291905050506102b6565b6040518084815260200183600019166000191681526020018260001916600019168152602001935050505060405180910390f35b34801561013457600080fd5b50610177600480360381019080803573ffffffffffffffffffffffffffffffffffffffff16906020019092919080356000191690602001909291905050506102f7565b604051808215151515815260200191505060405180910390f35b34801561019d57600080fd5b506101a6610326565b6040518082815260200191505060405180910390f35b3480156101c857600080fd5b506101f5600480360381019080803560001916906020019092919080359060200190929190505050610330565b005b34801561020357600080fd5b506102346004803603810190808035600019169060200190929190803560001916906020019092919050505061050f565b005b34801561024257600080fd5b5061024b610638565b6040518082815260200191505060405180910390f35b6000806000809150600090505b6003548110156102ac57836005600083815260200190815260200160002060010154141561029f5781806001019250505b808060010191505061026e565b8192505050919050565b600080600083600460008681526020019081526020016000206000015460046000878152602001908152602001600020600101549250925092509193909250565b60016020528160005260406000206020528060005260406000206000915091509054906101000a900460ff1681565b6000600354905090565b6000600160003373ffffffffffffffffffffffffffffffffffffffff1673ffffffffffffffffffffffffffffffffffffffff1681526020019081526020016000206000846000191660001916815260200190815260200160002060009054906101000a900460ff1615151561040d576040517f08c379a00000000000000000000000000000000000000000000000000000000081526004018080602001828103825260118152602001807f596f7520416c726561647920566f74656400000000000000000000000000000081525060200191505060405180910390fd5b600115156004600084815260200190815260200160002060020160009054906101000a900460ff161515141561050a57600360008154809291906001019190505590506040805190810160405280846000191681526020018381525060056000838152602001908152602001600020600082015181600001906000191690556020820151816001015590505060018060003373ffffffffffffffffffffffffffffffffffffffff1673ffffffffffffffffffffffffffffffffffffffff1681526020019081526020016000206000856000191660001916815260200190815260200160002060006101000a81548160ff0219169083151502179055505b505050565b60008060009054906101000a900473ffffffffffffffffffffffffffffffffffffffff1673ffffffffffffffffffffffffffffffffffffffff163373ffffffffffffffffffffffffffffffffffffffff1614151561056c57600080fd5b6002600081548092919060010191905055905060606040519081016040528084600019168152602001836000191681526020016001151581525060046000838152602001908152602001600020600082015181600001906000191690556020820151816001019060001916905560408201518160020160006101000a81548160ff0219169083151502179055509050507fec542c373a064661ffef02d633752debf28f3e6c9f253680822d9ccf8b47aec6816040518082815260200191505060405180910390a1505050565b60006002549050905600a165627a7a7230582037d18abe36a8e38b14f9ee8d19bc5a5aada25ce273e77013177a5fea5dffda6c0029",
  "source": "pragma solidity ^0.4.18;\r\n// written for Solidity version 0.4.18 and above that doesnt break functionality\r\n\r\ncontract Voting {\r\n    // an event that is called whenever a Candidate is added so the frontend could\r\n    // appropriately display the candidate with the right element id (it is used\r\n    // to vote for the candidate, since it is one of arguments for the function \"vote\")\r\n    event AddedCandidate(uint candidateID);\r\n    // describes a Voter, which has an id and the ID of the candidate they voted for\r\n    address owner;\r\n    mapping (address => mapping (bytes32 => bool)) public hasVoted;\r\n    function Voting()public {\r\n        owner=msg.sender;\r\n    }\r\n    modifier onlyOwner {\r\n        require(msg.sender == owner);\r\n        _;\r\n    }\r\n\r\n    struct Voter {\r\n        bytes32 uid; // bytes32 type are basically strings\r\n        uint candidateIDVote;\r\n    }\r\n    // describes a Candidate\r\n    struct Candidate {\r\n        bytes32 name;\r\n        bytes32 party; \r\n        // \"bool doesExist\" is to check if this Struct exists\r\n        // This is so we can keep track of the candidates \r\n        bool doesExist; \r\n    }\r\n\r\n    // These state variables are used keep track of the number of Candidates/Voters \r\n    // and used to as a way to index them     \r\n    uint numCandidates; // declares a state variable - number Of Candidates\r\n    uint numVoters;\r\n\r\n    \r\n    // Think of these as a hash table, with the key as a uint and value of \r\n    // the struct Candidate/Voter. These mappings will be used in the majority\r\n    // of our transactions/calls\r\n    // These mappings will hold all the candidates and Voters respectively\r\n    mapping (uint => Candidate) candidates;\r\n    mapping (uint => Voter) voters;\r\n    /* * * * * * * * * * * * * * * * * * * * * * * * * * * * * * * *\r\n     *  These functions perform transactions, editing the mappings *\r\n     * * * * * * * * * * * * * * * * * * * * * * * * * * * * * * * */\r\n\r\n    function addCandidate(bytes32 name, bytes32 party) onlyOwner public {\r\n        // candidateID is the return variable\r\n        uint candidateID = numCandidates++;\r\n        // Create new Candidate Struct with name and saves it to storage.\r\n        candidates[candidateID] = Candidate(name,party,true);\r\n        AddedCandidate(candidateID);\r\n    }\r\n    function vote(bytes32 uid, uint candidateID) {\r\n        // checks if the struct exists for that candidate\r\n        require(!hasVoted[msg.sender][uid], \"You Already Voted\");\r\n        if (candidates[candidateID].doesExist == true) {\r\n            uint voterID = numVoters++; //voterID is the return variable\r\n            voters[voterID] = Voter(uid,candidateID);\r\n            hasVoted[msg.sender][uid] = true;\r\n        }\r\n    }\r\n\r\n    /* * * * * * * * * * * * * * * * * * * * * * * * * * \r\n     *  Getter Functions, marked by the key word \"view\" *\r\n     * * * * * * * * * * * * * * * * * * * * * * * * * */\r\n    \r\n\r\n    // finds the total amount of votes for a specific candidate by looping\r\n    // through voters \r\n    function totalVotes(uint candidateID) view public returns (uint) {\r\n        uint numOfVotes = 0; // we will return this\r\n        for (uint i = 0; i < numVoters; i++) {\r\n            // if the voter votes for this specific candidate, we increment the number\r\n            if (voters[i].candidateIDVote == candidateID) {\r\n                numOfVotes++;\r\n            }\r\n        }\r\n        return numOfVotes; \r\n    }\r\n\r\n    function getNumOfCandidates() public view returns(uint) {\r\n        return numCandidates;\r\n    }\r\n\r\n    function getNumOfVoters() public view returns(uint) {\r\n        return numVoters;\r\n    }\r\n    // returns candidate information, including its ID, name, and party\r\n    function getCandidate(uint candidateID) public view returns (uint,bytes32, bytes32) {\r\n        return (candidateID,candidates[candidateID].name,candidates[candidateID].party);\r\n    }\r\n}\r\n",
  "sourcePath": "C:\\Users\\sahil\\eth-voting-dapp\\contracts\\Voting.sol",
  "compiler": {
    "name": "solc",
    "version": "0.4.24+commit.e67f0147.Emscripten.clang"
  },
  "schemaVersion": "2.0.1",
  "updatedAt": "2018-10-26T09:45:10.594Z"
}